S00D000054657374322E7372656345
S11300000C9405010C9422010C9422010C942201FD
S11300100C9422010C9422010C9422010C942201D0
S11300200C9422010C9422010C9422010C942201C0
S11300300C9422010C9422010C9422010C942201B0
S11300400C9422010C9422010C9422010C942201A0
S11300500C9422010C9422010C9422010C94220190
S11300600C9422010C942201F504FB04FB04FB0410
S1130070FB04FB04FB04FB04FB04FB04FB04FB0484
S1130080FB04FB04FB04FB04FB04FB04FB04FB0474
S1130090FB04FB04FB04FB04FB04FB04FB04FB0464
S11300A0FB04CB043C045F04FB04DD04FB04FB04FD
S11300B0FB04FB04FB04FB04FB04FB04FB04FB0444
S11300C0FB04FB04EA04FB048C04FB04FB04AA0405
S11300D0FB04FB04FB04FB04FB04FB04FB04FB0424
S11300E0FB04B9043C044604FB04DD04FB04FB04E8
S11300F0FB04FB04FB04FB04FB04FB04FB04FB0404
S1130100FB04FB04EA04FB047D04FB04FB049B04E2
S113011000407A10F35A00A0724E18090010A5D4BA
S1130120E80000E87648170000E40B54020000CA17
S11301309A3B000000E1F50500008096980000005D
S113014040420F000000A0860100000010270000BC
S11301500000E803000000006400000000000A0042
S1130160000000000100000000002C76D888DC6745
S11301704F0823DFC1DFAE59E1B1B796E5E3E4539D
S1130180C63AE651997696E8E6C28426EB898C9BBA
S113019062ED407C6FFCEFBC9C9F40F2BAA56FA55A
S11301A0F490055A2AF75C936B6CF9676DC11BFCDC
S11301B0E0E40D47FEF520E6B500D0ED902E0300F7
S11301C0943577050080841E080000204E0A000044
S11301D000C80C333333330F986E12831141EF8D03
S11301E02114893BE65516CFFEE6DB18D1844B3843
S11301F01BF77C1D901DA4BBE424203284725E2274
S11302008100C9F124ECA1E53D2711241FBECFEFE5
S1130210D8E0DEBFCDBF11E0A0E0B1E0E4E9F3E156
S113022002C005900D92AA34B107D9F721E0AAE4DF
S1130230B1E001C01D92AB34B207E1F70E94F201B4
S11302400C94C8090C94000007C0E9EFF0E0319762
S1130250F1F700C0000001970097B9F70895CF9314
S1130260DF93EC0105C088EE93E00E9424012197FE
S11302702097C9F7DF91CF9108951092C50087E6C2
S11302808093C400E1ECF0E0808188618083E2EC3B
S1130290F0E080818660808308959091C00095FF8E
S11302A0FCCF8093C60008950F931F93CF938C01C6
S11302B0C0E003C00E944D01CF5FF801EC0FF11DB7
S11302C080818111F7CFCF911F910F910895809173
S11302D0C0008823E4F78091C600089587B187B9E8
S11302E087E880937A000895ACE7B0E09C9190642D
S11302F09C93EAE7F0E09081976890839C91907ECC
S1130300890F8C9380818064808380917A0086FD3C
S1130310FCCF0895CF93DF93C0917800D0917900FA
S113032080E00E9474011C161D069CF4BE01DD0FC2
S1130330880B990B0E941E0620E030E048EC52E442
S11303400E94AA0620E030E849E054E40E947B05BC
S113035003C060E070E0CB01DF91CF91089585B1D7
S11303608E6085B90895F999FECF92BD81BD60BDB7
S11303708FB384608FBB8FB382608FBB0895F9996C
S1130380FECF92BD81BD8FB381608FBB80B50895D0
S11303900F931F93CF93DF938C01EB016991C801F5
S11303A00E94B3010F5F1F4FFE01319780818111BD
S11303B0F5CFDF91CF911F910F9108950F931F9364
S11303C0CF93DF93EC018B01CE010E94BF01F801B2
S11303D081938F0121968111F7CFDF91CF911F91E6
S11303E00F910895CF93DF93CDB7DEB769970FB61A
S11303F0F894DEBF0FBECDBF0E943D010E946E0186
S113040085E1E0E0F1E0DE01159601900D928A9518
S1130410E1F78AB18AB98BB186608BB984B18E60F9
S113042084B986E191E00E945401CC24C394D12C78
S1130430EE24E394F12C0E94AF010E948A01B62EAF
S1130440A72E982E892E0E94670180934A01813637
S113045001F585B18D7F85B985B18B7F85B985B16E
S1130460877F85B98DE191E00E9454018AE090E094
S11304700E942F0183E291E09F938F930E94F903DE
S113048082E085B984E085B988E085B90F900F9042
S1130490D2CF8236A9F520E030E048EC52E46B2D4F
S11304A07A2D892D982D0E94AA0620E030E849E093
S11304B054E40E947B059E012F5F3F4F390189015F
S11304C022E043E00E943F078F929F92AF92BF9237
S11304D08BE291E09F938F930E94F9038FE090E069
S11304E00E942F017F926F920E94F9038FE090E0A7
S11304F00E942F010FB6F894DEBF0FBECDBF9BCF75
S1130500833609F052C025C00E948A0120E030E001
S113051048EC52E40E94AA0620E030E849E054E4A2
S11305200E947B058E010F5F1F4F22E043E00E9473
S11305303F0792E0E916F10444F460E371E0C50179
S11305400E94C8012FEFA21AB20A3FEFE31AF30A7E
S113055005C0AA24A394B12CE12CF12C83E0E81665
S1130560F10494F28E010B5F1F4FB80181E090E01B
S11305700E94DE01C8010E9454018FE090E00E94B5
S11305802F011F930F9385E491E09F938F930E9413
S1130590F9038FE090E00E942F010F900F900F90CD
S11305A00F90EE24E394F12C46CF843609F043CF28
S11305B029C0E5E0F0E0EC0FFD1FE00FF11F6081C2
S11305C0C7010E94B3019FEFE91AF90A0F5F1F4F99
S11305D002C000E010E0053111055CF300E010E01A
S11305E00AC0C6010E94BF010E944D012FEFC21A2A
S11305F0D20A0F5F1F4F053111059CF33FEFA31A79
S1130600B30A02C0A12CB12C86E0A816B1040CF3E5
S113061012CF9091C00095FFFCCF8093C60008953F
S1130620CF93DF93EC0103C021960E9409038881D4
S11306308111FACFDF91CF9108954F925F926F921B
S11306407F92AF92BF92CF92DF92EF92FF920F937D
S11306501F93CF93DF93CDB7DEB72A970FB6F894E5
S1130660DEBF0FBECDBFA82E6A017B01022F82E040
S1130670A81220C01CC0802F90E0019741E050E0F8
S113068002C0440F551F8A95E2F7052E000C660B35
S1130690770B4C215D216E217F2181E0452B462B78
S11306A0472B09F480E0805D0E9409030150011189
S11306B0E2CF52C0452B462B472B39F010E035C012
S11306C080E30E9409031F5F01C010E0101708F0C7
S11306D043C01A30A8F340C0C114D104E104F104AA
S11306E0D1F0BC2C4A2C512C612C712CC701B601C1
S11306F0A30192010E941707C22ED32EE42EF52ED9
S1130700E1E0F0E0EC0FFD1FE10FF11DA29EB01837
S11307101124B08209C00B30E8F4E1E0F0E0EC0F02
S1130720FD1FE10FF11D10821F5F1017A8F212C008
S1130730E12FF0E0319781E090E08C0F9D1FE80FEE
S1130740F91F80818A3010F0895C01C0805D0E94AD
S1130750090311501111ECCF2A960FB6F894DEBF9D
S11307600FBECDBFDF91CF911F910F91FF90EF90FE
S1130770DF90CF90BF90AF907F906F905F904F903D
S113078008958F929F92AF92BF92CF92DF92EF9291
S1130790FF926B017C010E94ED054B015C012FEF80
S11307A0AB01BC018AE00E941D038EE20E94090392
S11307B0C501B4010E941C069B01AC01C701B6012E
S11307C00E940E0520E034E244E759E40E94AA06A0
S11307D00E94ED05AB01BC012FEF8AE00E941D03CE
S11307E0FF90EF90DF90CF90BF90AF909F908F904D
S11307F008954F925F926F927F92AF92BF92EF9261
S1130800FF921F93CF93DF93CDB7DEB7FE013E96E1
S1130810E190F1903F01F2C0853209F0EAC0C701CE
S11308200196D7011196EC9120ED2E0F2A3090F00D
S11308307C011FEF15C0812F880F982F990F990FF6
S1130840890F8E0F10ED180FBFEFEB1AFB0AD701BB
S1130850EC9102C07C0110E080ED8E0F8A3058F3D9
S11308608E2F90E0FC01B597E435F10508F0C3C084
S1130870EC5CFF4F0C9439075301B2E0AB0EB11C92
S1130880F30180810E9409033501B5C05301F2E0F0
S1130890AF0EB11CD3016D907C90772034F4719429
S11308A0619471088DE20E940903A301770C660B21
S11308B0770B212F8AE00E941D0335019CC0530150
S11308C0B4E0AB0EB11CF3014080518062807380B0
S11308D077205CF47094609450944094411C511CB3
S11308E0611C711C8DE20E940903212FB301A20136
S11308F08AE00E941D0335017EC05301F2E0AF0E71
S1130900B11CD3014D915C9160E070E0212F8AE02D
S11309100E941D0335016FC05301B4E0AB0EB11C3E
S1130920F3014081518162817381212F8AE00E9409
S11309301D03350160C05301F2E0AF0EB11CD301B9
S11309404D915C9160E070E0212F80E10E941D03D5
S1130950350151C05301B4E0AB0EB11CF301408129
S1130960518162817381212F80E10E941D03350131
S113097042C05301F2E0AF0EB11CD3014D915C9122
S11309801F3F09F410E160E070E0212F82E00E9433
S11309901D03350130C05301B4E0AB0EB11CF301AB
S11309A040815181628173811F3F09F410E2212F3C
S11309B082E00E941D0335011EC05301F4E0AF0E16
S11309C0B11CD3016D917D918D919C910E94C103C5
S11309D0350111C05301B2E0AB0EB11CF3018081AB
S11309E091810E941003350106C085E20E9409032B
S11309F002C00E940903FFEFEF1AFF0AD7018C918E
S1130A0081110ACFDF91CF911F91FF90EF90BF909A
S1130A10AF907F906F905F904F9008955058BB2790
S1130A20AA270E9426050C9470060E94620638F0DC
S1130A300E94690620F039F49F3F19F426F40C94BF
S1130A405F060EF4E095E7FB0C945906E92F0E942B
S1130A50810658F3BA17620773078407950720F0D5
S1130A6079F4A6F50C94A3060EF4E0950B2EBA2F98
S1130A70A02D0B01B90190010C01CA01A0011124A0
S1130A80FF27591B99F0593F50F4503E68F11A164C
S1130A90F040A22F232F342F4427585FF3CF4695DD
S1130AA037952795A795F0405395C9F77EF41F16FF
S1130AB0BA0B620B730B840BBAF09150A1F0FF0FC9
S1130AC0BB1F661F771F881FC2F70EC0BA0F621FB5
S1130AD0731F841F48F4879577956795B795F795A5
S1130AE09E3F08F0B0CF9395880F08F09927EE0F3A
S1130AF09795879508950E948F050C9470060E941F
S1130B00690658F00E94620640F029F45F3F29F01C
S1130B100C94590651110C94A4060C945F060E947F
S1130B20810668F39923B1F3552391F3951B550B73
S1130B30BB27AA2762177307840738F09F5F5F4FAC
S1130B40220F331F441FAA1FA9F335D00E2E3AF0EB
S1130B50E0E832D091505040E695001CCAF72BD003
S1130B60FE2F29D0660F771F881FBB1F2617370754
S1130B704807AB07B0E809F0BB0B802DBF01FF2786
S1130B8093585F4F3AF09E3F510578F00C94590604
S1130B900C94A4065F3FE4F3983ED4F386957795CE
S1130BA06795B795F7959F5FC9F7880F911D96953F
S1130BB0879597F90895E1E0660F771F881FBB1F9B
S1130BC0621773078407BA0720F0621B730B840B48
S1130BD0BA0BEE1F88F7E09508950E94890688F005
S1130BE09F5798F0B92F9927B751B0F0E1F0660FED
S1130BF0771F881F991F1AF0BA95C9F714C0B1302E
S1130C0091F00E94A306B1E008950C94A306672F07
S1130C10782F8827B85F39F0B93FCCF3869577955C
S1130C206795B395D9F73EF4909580957095619545
S1130C307F4F8F4F9F4F0895E89409C097FB3EF470
S1130C4090958095709561957F4F8F4F9F4F992315
S1130C50A9F0F92F96E9BB279395F6958795779593
S1130C606795B795F111F8CFFAF4BB0F11F460FF53
S1130C701BC06F5F7F4F8F4F9F4F16C0882311F0AB
S1130C8096E911C0772321F09EE8872F762F05C0BF
S1130C90662371F096E8862F70E060E02AF09A955A
S1130CA0660F771F881FDAF7880F9695879597F94F
S1130CB0089597F99F6780E870E060E008959FEFDA
S1130CC080EC089500240A941616170618060906DF
S1130CD0089500240A9412161306140605060895AE
S1130CE0092E0394000C11F4882352F0BB0F40F436
S1130CF0BF2B11F460FF04C06F5F7F4F8F4F9F4F76
S1130D00089557FD9058440F551F59F05F3F71F0F7
S1130D104795880F97FB991F61F09F3F79F087955E
S1130D200895121613061406551FF2CF4695F1DFE7
S1130D3008C0161617061806991FF1CF8695710577
S1130D40610508940895E894BB2766277727CB01AB
S1130D5097F908950E94BD060C9470060E946206DD
S1130D6038F00E94690620F0952311F00C9459067E
S1130D700C945F0611240C94A4060E94810670F35F
S1130D80959FC1F3950F50E0551F629FF001729F2C
S1130D90BB27F00DB11D639FAA27F00DB11DAA1F3B
S1130DA0649F6627B00DA11D661F829F2227B00D88
S1130DB0A11D621F739FB00DA11D621F839FA00D13
S1130DC0611D221F749F3327A00D611D231F849F63
S1130DD0600D211D822F762F6A2F11249F575040BA
S1130DE09AF0F1F088234AF0EE0FFF1FBB1F661F35
S1130DF0771F881F91505040A9F79E3F510580F0FE
S1130E000C9459060C94A4065F3FE4F3983ED4F383
S1130E10869577956795B795F795E7959F5FC1F7A1
S1130E20FE2B880F911D9695879597F90895A1E259
S1130E301A2EAA1BBB1BFD010DC0AA1FBB1FEE1F50
S1130E40FF1FA217B307E407F50720F0A21BB30B9B
S1130E50E40BF50B661F771F881F991F1A9469F717
S1130E6060957095809590959B01AC01BD01CF0173
S1130E700895EE0FFF1F0590F491E02D0994EF9271
S1130E800F931F93CF93DF93E80147FD02C034E033
S1130E9001C034E1042E000C550B57FF03C05195DB
S1130EA041955109E32E022F242FAE010E945F07C2
S1130EB0CE01DF91CF911F910F91EF900895A9E09A
S1130EC0B0E0E5E6F7E00C9497096A01122FB02E22
S1130ED02BE3201720F0FF24F394F00E02C02CE340
S1130EE0F22E0F2D27E0AE014F5F5F4F0E94B9082D
S1130EF0BC014981842F8970813031F0E1FC06C046
S1130F00E0FE06C090E205C09DE203C09BE201C082
S1130F1090E05E2D507143FF3CC0911102C083E00C
S1130F2001C084E0811718F4212F281B01C020E0A0
S1130F3051110BC0F601822F30E2882319F031934E
S1130F408150FBCFC20ED11C20E0992329F0D60199
S1130F509C93F60131966F01C6010396E2FE0AC026
S1130F603EE4D6013C9341E411964C9311971296BA
S1130F703C9306C03EE6F601308341E6418332836A
S1130F80FC01322F40E2332309F442C04193315033
S1130F90FACF42FF44C0911102C083E001C084E053
S1130FA0811718F4212F281B01C020E051110BC018
S1130FB0F601822F30E2882319F031938150FBCF60
S1130FC0C20ED11C20E0992329F0D6019C93F6018E
S1130FD031966F01C6010396E2FE0BC039E4D601D7
S1130FE03C933EE411963C93119736E412963C935D
S1130FF007C039E6F60130833EE6318336E63283B4
S1131000FC01322F40E2332319F041933150FBCFDE
S1131010FC01E20FF11D10828EEF9FEFA6C021E0CC
S113102030E0911102C020E030E0161617061CF4DF
S1131030FB01319602C0E1E0F0E02E0F3F1FBB2020
S113104021F0EB2DF0E0319602C0E0E0F0E02E0F4D
S11310503F1FE12FF0E02E173F071CF4121B212F36
S113106001C020E08E2D887159F4F601822F30E200
S1131070882319F031938150FBCFC20ED11C20E09C
S1131080992329F0D6019C93F60131966F015111F1
S11310900BC0F601822F90E3882319F091938150BD
S11310A0FBCFC20ED11C20E00F2D060F9A81342FE6
S11310B0307144FF03C0913309F40150101624F435
S11310C0093018F008E001C001E0AB0177FF02C06D
S11310D040E050E0FB01E41BF50BA1E0B0E0AC0FF5
S11310E0BD1FEA0FFB1F8EE2A82E4B01801A910848
S11310F00B2D10E01195019511094F3FBFEF5B07D0
S113110021F4D601AC9211966D01641775072CF089
S11311108416950614F4818101C080E3415051097D
S11311203196D60111967D014017510724F0D6015E
S11311308C936701E2CF6417750739F4963320F472
S1131140953319F4311101C081E3F6018083F7016D
S1131150822F90E2882319F091938150FBCFF701FD
S1131160E20FF11D108280E090E02996ECE00C94EF
S1131170B309283008F027E03327DA01990F311D2D
S113118087FD916000966105710539F432602E5F28
S11311903D9330E32A95E1F708959F3F30F080387E
S11311A07105610509F03C5F3C5F3D93913008F0A7
S11311B08068911DDF93CF931F930F93FF92EF925B
S11311C0192F987F9695E92F96959695E90FFF2705
S11311D0E659FE4F99273327EE24FF24A701E701A0
S11311E005900894079428F4360FE71EF81E491F4B
S11311F0511D660F771F881F991F0694A1F705904C
S1131200079428F4E70EF81E491F561FC11D770FD7
S1131210881F991F661F0694A1F70590079428F468
S1131220F80E491F561FC71FD11D880F991F661F2F
S1131230771F0694A1F70590079420F4490F561FD1
S1131240C71FD81F990F661F771F881F0694A9F719
S113125084911095177041F0D695C7955795479589
S1131260F794E7941A95C1F7E0E1F1E068941590DA
S1131270159135916591959105907FE27395E118EB
S1131280F10A430B560BC90BD009C0F7E10CF11E50
S1131290431F561FC91FD01D7EF4703311F48A9565
S11312A0E6CFE894015030F0080F0AF40027021743
S11312B008F4202F2395022F7A3328F079E37D93C5
S11312C02A95E9F710C07D932A9589F60694979597
S11312D06795379517951794E118F10A430B560B48
S11312E0C90BD00998F023957E9173957A3308F051
S11312F070E37C932013B8F77E9170617D9330F096
S1131300839571E37D9370E32A95E1F71124EF90BF
S1131310FF900F911F91CF91DF91992787FD9095B1
S113132008952F923F924F925F926F927F928F9285
S11313309F92AF92BF92CF92DF92EF92FF920F9360
S11313401F93CF93DF93CDB7DEB7CA1BDB0B0FB66A
S1131350F894DEBF0FBECDBF09942A883988488827
S11313605F846E847D848C849B84AA84B984C884BD
S1131370DF80EE80FD800C811B81AA81B981CE0FB4
S1131380D11D0FB6F894DEBF0FBECDBFED01089599
S1071390F894FFCFFB
S113139432332F30322F32322F31322F30312F303B
S11313A4302E30303C0053544152540A006475705A
S11313B4610A0020647570610D0A002025660A0024
S11313C432332F30322F32322F31322F30312F300B
S10D13D4302E303000202573000095
S9030000FC
